:100000000C942A000C943F000C943F000C943F0089
:100010000C943F000C943F000C943F000C943F0064
:100020000C943F000C943F000C943F000C943F0054
:100030000C943F000C943F000C943F000C943F0044
:100040000C943F000C943F000C943F000C943F0034
:100050000C943F0011241FBECFE5D8E0DEBFCDBF1A
:1000600011E0A0E6B0E0EEECFCE002C005900D92DD
:10007000A633B107D9F70E947A040C9465060C9454
:100080000000CF93CCE061E08C2F0E948D05CF5F04
:10009000C031C9F7CF910895DF92EF92FF920F938D
:1000A0001F93CF93DF939BE8E92E90E0F92ECCE0ED
:1000B000D4E560E08C2F0E948D0500E010E088E11F
:1000C000D82ED00E8D2D0E940C06811115C0F7017F
:1000D000E00FF11FD0818FE19EE40197F1F700C09E
:1000E00000008D2D0E940C068823D9F38FE19EE439
:1000F0000197F1F700C000000F5F1F4F043011059A
:10010000F1F661E08C2F0E948D05CF5F94E0E90E3F
:10011000F11CC03171F68D2FDF91CF911F910F919E
:10012000FF90EF90DF900895CF93C82F61E085E0B6
:100130000E948D056C2F661F6627661F80E00E9457
:100140008D05C6FB662760F981E00E948D05C5FB21
:10015000662760F982E00E948D05C4FB662760F97E
:1001600083E00E948D0561E084E00E948D058FECA4
:1001700097E00197F1F700C0000060E084E00E9482
:100180008D058FEC97E00197F1F700C00000C3FBED
:10019000662760F980E00E948D05C2FB662760F942
:1001A00081E00E948D05C1FB662760F982E00E9414
:1001B0008D056C2F617083E00E948D0561E084E005
:1001C0000E948D058FEC97E00197F1F700C00000C9
:1001D00060E084E00E948D058FEC97E00197F1F7D5
:1001E00000C00000CF910895CF93C82F60E085E054
:1001F0000E948D056C2F661F6627661F80E00E9497
:100200008D05C6FB662760F981E00E948D05C5FB60
:10021000662760F982E00E948D05C4FB662760F9BD
:1002200083E00E948D0561E084E00E948D058FECE3
:1002300097E00197F1F700C0000060E084E00E94C1
:100240008D058FEC97E00197F1F700C00000C3FB2C
:10025000662760F980E00E948D05C2FB662760F981
:1002600081E00E948D05C1FB662760F982E00E9453
:100270008D056C2F617083E00E948D0561E084E044
:100280000E948D058FEC97E00197F1F700C0000008
:1002900060E084E00E948D058FEC97E00197F1F714
:1002A00000C00000CF9108952FE788E391E021502E
:1002B00080409040E1F700C0000082E00E94F4001E
:1002C00088E20E94F4008CE00E94F40081E00E9429
:1002D000F4008FEC97E00197F1F700C0000086E092
:1002E0000C94F400811102C080E803C0813021F435
:1002F00080EC860F0C94F400089581E00E94F400D5
:100300008FEC97E00197F1F700C0000008950C947E
:1003100094000F931F93CF938C01C0E0F801EC0F72
:10032000F11D8081882321F00E949400CF5FF6CFD9
:10033000CF911F910F9108958F929F92AF92BF928C
:10034000EF92FF921F93CF93DF93CDB7DEB7649701
:100350000FB6F894DEBF0FBECDBF611571058105E4
:10036000910591F480E364960FB6F894DEBF0FBE5A
:10037000CDBFDF91CF911F91FF90EF90BF90AF90D5
:100380009F908F900C94940010E03AE0832E912C73
:10039000A12CB12CEE24E394F12CEC0EFD1EE10E09
:1003A000F11CA50194010E942906605DF70160839C
:1003B000E1E0E10FB901CA016115710581059105FF
:1003C00011F01E2FE7CF17FD0DC0E1E0F0E0EC0FBC
:1003D000FD1FE10FF11D17FDFA9580810E94940029
:1003E0001150F1CF64960FB6F894DEBF0FBECDBFAB
:1003F000DF91CF911F91FF90EF90BF90AF909F90B2
:100400008F900895CF92DF92EF92FF92CF93DF9378
:100410006115710521E08207910550F08BE990E0AC
:10042000DF91CF91FF90EF90DF90CF900C948901F6
:100430006B017C01CFE0D0E090E0B701A6010C2E6B
:1004400004C076956795579547950A94D2F7842FFF
:10045000817040FD02C0913029F4805D0E949400BB
:1004600091E001C090E0219740F7DF91CF91FF909C
:10047000EF90DF90CF900895CF93DF93EA010E9431
:100480007201CE01DF91CF910C948901EF92FF921E
:100490001F93CF93DF93CDB7DEB760970FB6F89475
:1004A000DEBF0FBECDBF9E012F5F3F4F790120E120
:1004B000F70111922A95E9F710E0611571058105A0
:1004C0009105B9F0462F4F70212F30E0F701E20F70
:1004D000F31F4A3010F420E301C027E3240F2083E8
:1004E00024E096958795779567952A95D1F71F5FB4
:1004F000E4CF115017FD09C0F701E10FF11D17FD01
:10050000FA9580810E949400F4CF60960FB6F8941B
:10051000DEBF0FBECDBFDF91CF911F91FF90EF9057
:100520000895CF93DF9300D01F92CDB7DEB78091AF
:10053000620090916300A091640089839A83AB83E9
:1005400089EA90E00E94890147EB50E060E081E099
:100550000E943C020E944C008093610081538330D2
:10056000C8F70E947D0181EB90E00E948901809193
:100570006100E0EDFFEFEC0FFD1FE80FF11D808142
:100580000E94870187EC90E00E94890147EB50E0D0
:1005900060E081E00E943C020E944C008093600079
:1005A0009FEC980F9330F0F4909161008917A1F3BC
:1005B0004CEC50E060E081E00E943C026AE080E0A8
:1005C0000E94720180916000E0EDFFEFEC0FFD1FD3
:1005D000E80FF11D80810F900F900F90DF91CF9168
:1005E0000C9487018334C1F60E947D01A9CFCF927C
:1005F000DF92EF92FF9260E081E00E9472010E9420
:100600004C00E82FC12CD12C7601ED33F1F080EDB8
:100610008E0F8A30B0F4AAE0B0E0A70196010E94E4
:100620004B06CE2ED12C20E3C21AD1080D2C000C83
:10063000EE08FF08C60ED71EE81EF91E8E2F0E9478
:1006400087010E944C00E82FE0CF80916000823348
:1006500091F40E947D01C701B6010E949C0160E0F7
:1006600081E00E947201C701B601FF90EF90DF9018
:10067000CF900C940202833391F40E947D01C70154
:10068000B6010E949C0160E081E00E947201C701F6
:10069000B601FF90EF90DF90CF900C944602FF9050
:1006A000EF90DF90CF900895EF92FF920F931F93FA
:1006B000CF93DF930E947D018DED90E00E94890130
:1006C0000E944C00813321F08233D1F71FE001C03A
:1006D00017E00E947D01C0E0D0E0EE24E394F12C0D
:1006E0001F3FB9F00E944C00082F80ED800F823030
:1006F000B8F7802F0E948701013349F4C701012E0A
:1007000002C0880F991F0A94E2F7C82BD92B115009
:10071000E7CF80916000813379F460E081E00E944E
:100720007201BE0180E090E0DF91CF911F910F91A7
:10073000FF90EF900C949C01833379F460E081E0AA
:100740000E947201BE0180E090E0DF91CF911F9185
:100750000F91FF90EF900C944602DF91CF911F9183
:100760000F91FF90EF900895BF92CF92DF92EF929A
:10077000FF920F931F93CF93DF9300D000D000D050
:10078000CDB7DEB70E947D018DEE90E00E94890119
:1007900060E081E00E9472018EEF90E00E9489018A
:1007A00086E0E5E6F0E0DE01119601900D928A9573
:1007B000E1F7C12CD12C760110E00E944C00082FEB
:1007C000843509F441C0111102C00E947D0130ED51
:1007D000B32EB00E89E08B1520F0802F0E94870188
:1007E00027C00B3279F5612F80E00E94720181E40D
:1007F0000E94870101E02AE0B22E0E944C008B3259
:10080000A9F4612F80E00E947201E1E0F0E0EC0FBA
:10081000FD1FE00FF11D80810E9487019AE0B92E33
:10082000B00E0F5F063048F300E0E7CF8D3229F7B6
:1008300084E0CC0CDD1CEE1CFF1C8A95D1F7CB2884
:100840001F5F02C00D3319F0183009F0B6CF809148
:1008500060008133B9F460E081E00E947201C70159
:10086000B60126960FB6F894DEBF0FBECDBFDF915E
:10087000CF911F910F91FF90EF90DF90CF90BF909D
:100880000C949C018233B9F460E081E00E94720113
:10089000C701B60126960FB6F894DEBF0FBECDBFD6
:1008A000DF91CF911F910F91FF90EF90DF90CF904C
:1008B000BF900C94020226960FB6F894DEBF0FBECE
:1008C000CDBFDF91CF911F910F91FF90EF90DF90FF
:1008D000CF90BF90089580916100813311F40C9402
:1008E000F702823311F40C945403833311F40C9403
:1008F000B40308950E94AF040E9454010E94410075
:100900008EE091E00E9489012FEF89E698E1215065
:1009100080409040E1F700C000000E947D0189E125
:1009200091E00E94890160E081E00E94720186E20C
:1009300091E00E9489012FEF89E698E121508040E3
:100940009040E1F700C000000E947D010E949102EA
:100950000E946B040E944C008334E1F7F5CFEBE674
:10096000F0E040E081E090E05191242F2770342F97
:10097000369536953695513009F443C020F0523003
:1009800009F482C0C5C0323001F1333061F1313039
:1009900071F05AB3BC0102C0660F771F2A95E2F7C7
:1009A0009B01352F322B3ABB3BB320953DC057B34B
:1009B000BC0102C0660F771F2A95E2F79B01352F15
:1009C000322B37BB38B320953EC054B3BC0102C0B4
:1009D000660F771F2A95E2F79B01352F322B34BB28
:1009E00035B320953FC051B3BC0102C0660F771FDD
:1009F0002A95E2F79B01352F322B31BB32B320957C
:100A000041C0323011F1333081F1313079F05AB3D5
:100A1000BC0102C0660F771F2A95E2F79B01209563
:100A2000352F32233ABB3BB3232342C057B3BC011B
:100A300002C0660F771F2A95E2F79B012095352F9C
:100A4000322337BB38B3232343C054B3BC0102C0A5
:100A5000660F771F2A95E2F79B012095352F3223E9
:100A600034BB35B3232325BB53C051B3BC0102C0F3
:100A7000660F771F2A95E2F79B012095352F3223C9
:100A800031BB32B3232343C0323021F1333089F1FB
:100A9000313081F05AB3BC0102C0660F771F2A952E
:100AA000E2F79B01362F309535233ABB3BB3232B1E
:100AB0002BBB2EC057B3BC0102C0660F771F2A950F
:100AC000E2F79B01362F3095352337BB38B3232B04
:100AD00028BB1EC054B3BC0102C0660F771F2A9505
:100AE000E2F79B01362F3095352334BB35B3232BEA
:100AF000BACF51B3BC0102C0660F771F2A95E2F747
:100B00009B01362F3095352331BB32B3232B22BBCB
:100B10004F5F403209F028CF0895982F977086953F
:100B2000869586956130C1F5813091F028F082304C
:100B3000D9F0833029F108954BB321E030E0B901B9
:100B400002C0660F771F9A95E2F7CB01842B38C05D
:100B500048B321E030E0B90102C0660F771F9A95D3
:100B6000E2F7CB01842B3AC045B321E030E0B90174
:100B700002C0660F771F9A95E2F7CB01842B3CC029
:100B800042B321E030E0B90102C0660F771F9A95A9
:100B9000E2F7CB01842B3EC08130A1F028F08230F7
:100BA000F9F0833059F108954BB321E030E0B901F9
:100BB00002C0660F771F9A95E2F7CB0180958423D8
:100BC0008BBB089548B321E030E0B90102C0660F45
:100BD000771F9A95E2F7CB018095842388BB08950F
:100BE00045B321E030E0B90102C0660F771F9A9546
:100BF000E2F7CB018095842385BB089542B321E0C1
:100C000030E0B90102C0660F771F9A95E2F7CB0179
:100C10008095842382BB0895282F2770869586951A
:100C20008695813049F030F0823041F0833079F49C
:100C300080B305C089B303C086B301C083B390E01D
:100C400002C0959587952A95E2F78170089580E016
:100C50000895A1E21A2EAA1BBB1BFD010DC0AA1FFD
:100C6000BB1FEE1FFF1FA217B307E407F50720F015
:100C7000A21BB30BE40BF50B661F771F881F991F90
:100C80001A9469F760957095809590959B01AC01D9
:100C9000BD01CF0108950E945606A59F900DB49FF7
:100CA000900DA49F800D911D11240895A29FB00165
:100CB000B39FC001A39F700D811D1124911DB29F90
:0E0CC000700D811D1124911D0895F894FFCF31
:100CCE00545444424841424344454600000000000B
:100CDE000000000000000000000000000000000006
:100CEE0000000002020202000000003738392F34E3
:100CFE0035362A3132332D43303D2B43616E277406
:100D0E0020446973706C617900436F6E76657274FE
:100D1E002046726F6D2000312D44202020322D424E
:100D2E00202020332D480020546F2000202020202A
:100D3E0020202020202020202020202000312D7552
:100D4E0038202020202020322D7531360055736535
:100D5E00202B20466F72204120546F204600557381
:100D6E006520282D2920436F6E6669726D00202044
:100D7E0020202048656C6C6F00202020436F6E761B
:100D8E00657274657200202046726F6D204D6F7310
:060D9E00746166610000B3
:00000001FF
